:020000040800F2
:1000000008100020C5630008F9660008FB660008B8
:1000100005660008096600080D660008000000007B
:10002000000000000000000000000000FD66000865
:10003000FF66000800000000016700080367000871
:1000400011660008156600081966000813670008A5
:100050001D6600082166000825660008296600085C
:100060002D6600083166000835660008396600080C
:100070003D660008416600084566000849660008BC
:100080004D6600085166000855660008596600086C
:100090005D6600086166000865660008696600081C
:1000A0006D660008716600087566000879660008CC
:1000B0007D6600088166000885660008896600087C
:1000C0008D6600089166000895660008996600082C
:1000D000076700089D660008A1660008A56600087D
:1000E000A9660008AD660008B1660008B56600089C
:1000F0001B67000817670008B9660008BD6600089E
:10010000C1660008C5660008C9660008CD6600081B
:10011000D1660008D5660008D9660008DD660008CB
:10012000E1660008E56600080D670008E96600085A
:10013000ED660008F1660008F566000800000000A2
:1001400000000000000000000000000000000000AF
:1001500044000800400502011C3AFB00F4010000C5
:10016000FFFFFFFF480101000020D80600037206D0
:10017000000000000D00000020204661696C202076
:10018000203A20534843495F43325F424C455F4920
:100190006E697420636F6D6D616E642C207265737F
:1001A000756C743A203078253032780A0D000000E2
:1001B0002020537563636573733A20534843495F46
:1001C00043325F424C455F496E697420636F6D6DC9
:1001D000616E640A0D00000020204661696C2020D9
:1001E000203A206163695F68616C5F77726974654A
:1001F0005F636F6E6669675F6461746120636F6DD2
:100200006D616E64202D20434F4E4649475F444147
:1002100054415F505542414444525F4F4646534516
:10022000542C20726573756C743A203078257820D0
:100230000A0000002020537563636573733A2061E0
:1002400063695F68616C5F77726974655F636F6E25
:100250006669675F6461746120636F6D6D616E6470
:10026000202D20434F4E4649475F444154415F5043
:100270005542414444525F4F46465345540A00009C
:1002800020204E6577205075626C696320426C7542
:1002900065746F6F746820416464726573733A208B
:1002A000253032783A253032783A253032783A257E
:1002B0003032783A253032783A253032780A0000E8
:1002C0003D3D3E3E20537461727420426C655F4830
:1002D00063695F4761705F476174745F496E6974F9
:1002E0002066756E6374696F6E0A00002020466197
:1002F000696C2020203A206863695F7265736574B9
:1003000020636F6D6D616E642C20726573756C7403
:100310003A2030782578200A00000000202050750F
:10032000626C696320426C7565746F6F74682041FC
:100330006464726573733A20253032783A2530321E
:10034000783A253032783A253032783A253032788A
:100350003A253032780A000020204661696C20205E
:10036000203A206163695F68616C5F7772697465C8
:100370005F636F6E6669675F6461746120636F6D50
:100380006D616E64202D20434F4E4649475F4441C6
:1003900054415F49525F4F46465345542C20726585
:1003A00073756C743A2030782578200A00000000BC
:1003B0002020537563636573733A206163695F68D6
:1003C000616C5F77726974655F636F6E6669675FA2
:1003D0006461746120636F6D6D616E64202D2043D4
:1003E0004F4E4649475F444154415F49525F4F4633
:1003F000465345540A00000020204661696C2020C5
:10040000203A206163695F68616C5F777269746527
:100410005F636F6E6669675F6461746120636F6DAF
:100420006D616E64202D20434F4E4649475F444125
:1004300054415F45525F4F46465345542C207265E8
:1004400073756C743A2030782578200A000000001B
:100450002020537563636573733A206163695F6835
:10046000616C5F77726974655F636F6E6669675F01
:100470006461746120636F6D6D616E64202D204333
:100480004F4E4649475F444154415F45525F4F4696
:10049000465345540A00000020204661696C202024
:1004A000203A206163695F68616C5F7365745F7493
:1004B000785F706F7765725F6C6576656C20636FCF
:1004C0006D6D616E642C20726573756C743A2030AA
:1004D000782578200A000000202053756363657337
:1004E000733A206163695F68616C5F7365745F7400
:1004F000785F706F7765725F6C6576656C20636F8F
:100500006D6D616E640A000020204661696C2020D8
:10051000203A206163695F676174745F696E697412
:1005200020636F6D6D616E642C20726573756C74E1
:100530003A2030782578200A0000000020205375EA
:1005400063636573733A206163695F676174745FA5
:10055000696E697420636F6D6D616E640A000000DE
:1005600020204661696C2020203A206163695F6722
:1005700061705F696E697420636F6D6D616E642C6C
:1005800020726573756C743A2030782578200A00E3
:100590002020537563636573733A206163695F67F5
:1005A00061705F696E697420636F6D6D616E640A5E
:1005B0000000000020204661696C2020203A206164
:1005C00063695F6761705F7365745F696F5F6361C3
:1005D000706162696C69747920636F6D6D616E64BE
:1005E0002C20726573756C743A2030782578200A57
:1005F000000000002020537563636573733A206127
:1006000063695F6761705F7365745F696F5F636182
:10061000706162696C69747920636F6D6D616E647D
:100620000A00000020204661696C2020203A2061E9
:1006300063695F6761705F7365745F617574686536
:100640006E7469636174696F6E5F726571756972EA
:10065000656D656E7420636F6D6D616E642C2072C4
:100660006573756C743A2030782578200A00000094
:100670002020537563636573733A206163695F6714
:1006800061705F7365745F61757468656E746963CA
:100690006174696F6E5F726571756972656D656EA3
:1006A0007420636F6D6D616E640A00000000004885
:1006B00001000000000000480100000000000048A8
:1006C0000100000000000048010000000000004898
:1006D0000100000000000048010000000000004888
:1006E0000100000000000048010000000000004878
:1006F0000100000000000048010000000000004868
:100700000100000000000048010000000000004857
:100710000100000000000048010000000000004847
:100720000100000000000048010000000000004837
:100730000100000000000048010000000000004827
:100740000100000000000048010000000000004817
:100750000100000000000048010000000000004807
:1007600001000000000000480100000000000048F7
:1007700001000000000000480100000000000048E7
:1007800001000000000000480100000000000048D7
:1007900001000000000000480100000000000048C7
:1007A00001000000000000480100000000000048B7
:1007B00001000000000000480100000000000048A7
:1007C0000100000000000048010000000000004897
:1007D00001000000000000480100000001000000CE
:1007E00003000000050000000100000001000000FF
:1007F000060000000A0000002000000002000000C7
:10080000040000000800000010000000400000008C
:10081000800000000001000000020000A08601002E
:10082000400D0300801A060000350C0040420F0006
:1008300080841E0000093D0000127A000024F400AC
:1008400000366E010048E801006CDC020000000088
:100850000000000000000000000000000000000098
:100860000000000000000000000000000100000087
:100870000200000003000000040000002DE9F04128
:1008800096B0CE4C07A821463C2200F0F7F9CC4E9A
:100890000FF27D370FF2613000960197694600F044
:1008A000F9F90121022000F0D4FAC64A0021012002
:1008B00000F059FB07A800F004FC010006D004F189
:1008C0003C0000F02BFCC046C04603E004F174007D
:1008D00000F024FC0DF116000021018004F5C27027
:1008E00000F01CFC00F02EFC28B1014604F5D87085
:1008F00000F014FC03E000BFCAA000F00FFC00F001
:1009000043F905462A460621002000F047FC04F181
:10091000F80804F19C0620B10146304600F0FEFBC9
:100920000FE0404600F0FAFB2878029069780191C8
:10093000A8780090EB782A79697904F5F07000F0D6
:10094000EDFBA14F687900BFC2A238722979797294
:10095000E878B872A978F97268783873182029781D
:100960007973102100F01AFC28B1014604F50770D4
:1009700000F0D4FB03E004F51D7000F0CFFB00BFD6
:10098000B8A21021082000F009FC28B1014604F5A6
:100990002F7000F0C3FB03E004F5457000F0BEFBD0
:1009A0001821012000F01EFC28B1014604F5577003
:1009B00000F0B4FB03E004F5677000F0AFFB00F05B
:1009C00042FC28B1014604F5737000F0A7FB03E078
:1009D00004F5806000F0A2FB06A80DF11A01019059
:1009E000009105AB07220021012000F0FCFD28B199
:1009F000014604F2244000F091FB03E004F254406D
:100A000000F08CFB8FA0BDF81A1000900723BDF8F2
:100A10001400002200F0D4FC0DF116000090022317
:100A2000BDF81810BDF81400002200F0C9FC002029
:100A300000F096FD28B1014604F58F6000F06EFBD2
:100A400003E004F5976000F069FB00200490102398
:100A50005E49039108200022019300900292002336
:100A60000121012000F090FD28B1014604F59D60B0
:100A700000F054FB03E004F2345000F04FFB00F0B0
:100A80003FFE53484FF4004101604FF00051026FA8
:100A90004878052802F0FF020EDC00200870BFF342
:100AA0004F8F4C494C480A6802F4E06202430A60E6
:100AB000BFF34F8F00BFFDE789780B189A4238BF0C
:100AC000111A00F041FE00F05FF8417939720279A5
:100AD0007A72C178B9728278FA7241783973027881
:100AE000521C7A7303AF4179797102793A71C178F6
:100AF000F9708278BA7003AA41787970062100787B
:100B0000401C8DF80C00002000F048FB20B101468D
:100B1000304600F003FB10E0404600F0FFFA9DF87D
:100B20000C007978FB783A7902900191B87879795C
:100B3000009004F5A27000F0F1FA00F00BF816B086
:100B4000BDE8F08180B54078052808BF00F002F8C4
:100B5000012002BD00B587B000200690059000225C
:100B600044A0049208210023029001910092039373
:100B7000A0228021002000F0A2FC07B05DF804EB69
:100B800011490E2000F05EBD80B514490A6812F1CB
:100B9000010F0DD012484B6802701B0A120A4270F6
:100BA0001A0A4968C37081701B0C0271437102BD3F
:100BB000002000F08DFE00B924A002BD3C01000819
:100BC000AC080320D30C00080810002007B2010075
:100BD000104000580CED00E00400FA058075FF1F7E
:100BE000982400200021012000F0CAB9012000F063
:100BF000E9B9012000F0EEB910B50446616801F1D1
:100C0000080000F079FE00B10120207010BD000046
:100C100010B1012803D07047012000F0C1B900F0E5
:100C2000C7B900002020537563636573733A206869
:100C300063695F726573657420636F6D6D616E6467
:100C40000A000000424C45636F7265006C7AD8ACB4
:100C500057720000123456789ABCDEF0123456787F
:100C60009ABCDEF0FEDCBA0987654321FEDCBA09D6
:100C7000876543210953544D5F4F54414AB10000E9
:100C800011F8013B521E00F8013B1CBF11F8013B5B
:100C9000F8E770477FB50C46684D6168684E28627A
:100CA0006962281D00F052FE246805F128000060EA
:100CB0004060746006F10800006040600120307000
:100CC000696829B10FF24112009202946846884780
:100CD0007FBD1FB55A4C04F1080000F044FE00BB74
:100CE0002078F0B1694604F1080000F065FE534831
:100CF000016A49B1009A029201238DF8043001A8DB
:100D000088479DF8040000E001202070207818B189
:100D1000009800F006FF04E0009904F1080000F0DC
:100D20002BFE04F1080000F01EFE28B9207818B14F
:100D300004F10800FFF756FF1FBD2DE9FC410446F2
:100D4000002000F056F8DFF8F48066882088012142
:100D500088F80010C6F3090646EA8026384840683D
:100D6000A168E268C272B6B2A0F80960D2B20C30D3
:100D7000FFF784FFD8F814200021002090470025B9
:100D800048F2E800FFF735FF12E0B7F80100B04283
:100D90000BD1887AC21E6069D2B28242C8BF0246B5
:100DA00020696261F91CFFF769FF387800B10125FD
:100DB00008F1280000F0D7FD98B9694608F128002D
:100DC00000F0FAFD0098014600F10B07487A0F2861
:100DD000DBD17888B04202D12269397811707878F5
:100DE000E4E72800CCD0012000F003F80020BDE8A3
:100DF000F6811249496A08B921B1084700291CBF88
:100E0000012008477047000010B50146487A0F28B6
:100E100018BF0E2807D10B4800F0B8FDBDE8104000
:100E20000020FFF7E3BE064C04F1080000F0AEFD21
:100E300004F10800BDE81040FFF7D4BE9023002065
:100E400060240020B82300200D480021016041608B
:100E5000704710B500F007F85C6800F009F85C60B6
:100E600082F3108810BDEFF3108272B6044B704706
:100E700019B1012902D1044370478443704700002F
:100E8000A02400202DE9F843654C664EA569284052
:100E9000A0614FF0FF372169E2696069236A4FF072
:100EA00001083CE0491C54F831301A42FAD054F899
:100EB000312004EBC1091040D9F804100CEA0000FD
:100EC000014208BFC9F80470D9F80410084000F0C6
:100ED000ABF8D9F8042008FA00F18A43C9F80420D5
:100EE0006062EFF3108172B608FA00F22069D24313
:100EF00010402061022004EBC003401E53F808CCD0
:100F000002EA0C0C43F808CCF5D181F31088606A32
:100F100056F8201088472169E2696069236AD4F88D
:100F200018C0014011EA0C0F05D01A4203D100216C
:100F300000EA0C02B7E76762C046C046EFF31086CE
:100F400072B62269E1696069A36902401A4202BF70
:100F5000206A014200F0FEFE86F3108800F009FFCF
:100F6000A561BDE8F18338B51446EFF3108572B67C
:100F700000F05AF82B4941F8204085F3108831BD24
:100F800030B5EFF3108272B6254B1C6904431C6127
:100F900053F83150284343F8310082F3108830BDB4
:100FA000EFF3108172B61E4A536923EA000005E090
:100FB000EFF3108172B61A4A53691843506181F3F6
:100FC00010887047EFF3108172B6154AD369184341
:100FD000D061F4E72DE9F041114C666A05463746C9
:100FE00016F1010F0EBF0026012000FA06F6D4F814
:100FF0002080256203E02946304600F0ACFEE0691F
:101000002842F8D06762EFF3108072B6E16921EAF6
:101010000505E56180F31088C4F82080BDE8F08103
:101020003C2000206022002002460020110C090410
:1010300004BF1020120412F07F4F04BF08301202C8
:1010400012F0704F04BF001D120100BF03A3120F66
:10105000C0F11F00995C401AC0B27047040302023D
:1010600001010101000000000000000018B585B07A
:1010700000F043F84FF6524000F0D1FE14B19DF855
:101080000F00207013E01FB5002408B10090042465
:1010900009B10191241D6B466A4621464FF6544022
:1010A00030E000F0BCFE9DF80E0005B000BD9DF8DC
:1010B0000E0006B010BDF8B500F020F84FF65A400B
:1010C000EFE7F8B500F10C026B462E214FF66640B3
:1010D000E7E7F8B500F10C026B460F214FF66840C8
:1010E000DFE7F8B500F003F84FF66940D9E78DF86F
:1010F00000006B466A460121704704466B46002299
:101100000021704700F08BFE9DF80E0004B010BD6A
:10111000F8B5FFF7ECFF4FF67340C2E70EB4C0B569
:10112000024603A800210190009101AB012104486F
:1011300078440C3000F0C4FE06BC5DF810FB00BF24
:10114000DF55000000B587B000F019F800F011F885
:10115000032100F009F800F019F800284CBFFF2027
:101160009DF8000007B000BDADF80410ADF8061002
:1011700070471822002101A801F03FBE014600205F
:101180008DF800007047049207A90391012206928E
:10119000CDF814D0002101A8FFF7CFBD18B50C463B
:1011A000C7B0114600F03DF88DF81D4022460DF104
:1011B0001E0001F01CFE00F041F83F21ADF80410C4
:1011C0000C22ADF8062007A903910122A41C069267
:1011D000049400F020F800284CBFFF209DF8000088
:1011E00048B010BD00B5C7B000F021F80F2200F0E4
:1011F00007F800284CBFFF209DF8000047B000BD55
:10120000ADF806203F21ADF804100222049207A990
:10121000039101220692CDF814D0002101A8FFF716
:101220008CBD00228DF800208DF81C007047002333
:101230008DF81C008DF81D108DF80030182200214B
:1012400001A801F0DABD00B587B000208DF80000DC
:1012500000F0DFF840F2011200F01EF900F0E0F8B3
:1012600000284CBFFF209DF8000007B000BD2DE90D
:10127000F841C7B00446884616461F46012808BFF5
:10128000022003D002280CBF102000200DF11D0306
:101290001D1800F035F8012C8DF81C4002D0022CEE
:1012A0001AD01BE00224224641460DF11D0001F038
:1012B0009EFD2E706F7000F0ACF800F0A4F84FF4B3
:1012C000817200F017F8E41C0692049400F0A8F86C
:1012D000002805D5FF2009E01024E4E7972005E069
:1012E0009DF8000010B94E9800F065F8FFE748B08F
:1012F000BDE8F081ADF8062007A9039103227047ED
:1013000003220021684601F078BD2DE9F64F0C4616
:10131000C7B005469B46012C08BF022003D0022C13
:101320000CBF102000200DF11F031E18FFF7E8FF6F
:10133000012CADF81C508DF81E4002D0022C2DD08F
:101340002EE00227569C559DDDF85091DDF84CA10A
:10135000DDF8488148993A460DF11F0001F047FD3C
:10136000A6F800B086F8028086F803A086F80490FC
:101370007571B47100F04DF800F045F84FF48272C9
:1013800007A9ADF8062003910A37032204970692B5
:1013900000F046F8002805D5FF2009E01027D1E726
:1013A000972005E09DF8000010B9579800F003F869
:1013B00049B0BDE8F08FBDF80110018000207047F2
:1013C00078B5C7B01D464C9B00F055F800268DF847
:1013D00000608DF821502A4619460DF1220001F0D7
:1013E00006FD00F016F800F00EF84FF4837200F0DE
:1013F0004DF8AD1D00F012F800284CBFFF209DF8FD
:10140000000049B060BD3F21ADF8041070478DF871
:1014100000301822002101A801F0EFBC06920495CB
:10142000CDF814D0002101A8FFF787BCB8B5C7B02C
:101430004C9C4D9D00F01FF800278DF821308DF851
:1014400000708DF822402246294600F01BF8FFF775
:10145000E0FFFFF7D8FF4FF4937200F017F8E41D98
:1014600006920494FFF7DCFF00284CBFFF209DF894
:10147000000048B0B0BDADF81C00ADF81E108DF8EE
:10148000202070470DF1230001F0B1BCADF806201B
:1014900007A9039101227047ADF806203F21ADF85E
:1014A0000410012206927047049207A903910122B9
:1014B0000692CDF814D0002101A8FFF73EBC2DE91B
:1014C000F84DC7B09446DDF840E1519A559D569EBF
:1014D000DDF84CA1ADF81D108DF81C004FF0000B8D
:1014E000ADF81FC08DF821308DF822E000F02CF807
:1014F00000F01FF824F8095F668000F0E1F83F2053
:10150000ADF8040083210120ADF8061000F00AF8C0
:10151000FFF7CFFF00284CBFFF209DF8000048B028
:10152000BDE8F08D07AA5744069003920D37049743
:10153000704788F800A007AC5499E419524608F1A6
:101540000100544401F053BC8DF8232017465299F2
:101550008DF800B00DF1240809A8B84401F047BC8B
:1015600000B5C7B000F087F800F0AAF800F0C4F8A2
:10157000852200F086F8FFF79BFF00284CBFFF2074
:101580009DF8000047B000BD2DE9F841C7B04FF00D
:10159000000800F022F84E9F4F9E509D529C51989B
:1015A0008DF800800DF123018DF81F308DF820702B
:1015B0008DF821608DF8225008608DF8274000F0EA
:1015C0007FF8862200F096F80C22FFF76DFF0028C6
:1015D0004CBFFF209DF800004AE08DF81C0007A8D2
:1015E000417082707047F8B5C8B005460E46174680
:1015F0001C4600F022F808A8467087708DF820502D
:1016000000F057F88A2200F043F8032200F046F871
:10161000002848BFFF200ED49DF8000058B94F990C
:101620004E98BDF801202280BDF803300380BDF83C
:1016300005000880002049B0F0BD0722002168465F
:1016400001F0DBBB18B5C7B000F03FF800F045F87B
:1016500000F036F800F050F88E2200F042F8FFF764
:1016600028FF00284CBFFF209DF8000048B010BDA7
:1016700048B0BDE8F08100228DF800208DF81C00F4
:101680007047ADF8062007A9039101220492704724
:10169000ADF80A203F21ADF808107047059208A95F
:1016A000049107220792CDF818D0002102A8FFF775
:1016B00044BB1822002102A801F09FBB8DF8003026
:1016C0001822002101A801F098BB002304468DF8E0
:1016D00000308DF81C40224670470DF11D0001F0CE
:1016E00086BBADF8062007A903910122641C06926F
:1016F00004947047ADF806203F21ADF80410704700
:1017000007490020087700220648027001F07FBBDD
:1017100003490A7F41F82200087F401C0877704780
:101720000C240020D424002000EB8100654AD0F86E
:101730008010914201D0012070470020704742F490
:10174000806240F8212070472DE9F04104460D46A3
:101750000026DFF8748102214046FFF7E5FF0028EC
:10176000F9D101F0ADFB0120FFF7BBFC002704E03D
:10177000381900F047F806467F1CAF4201D230000E
:10178000F6D016B1ED1B6D1C0AE00020FFF7A9FC96
:1017900001F0A6FB002202214046FFF7D0FF002502
:1017A0002846BDE8F0812DE9F84380460C461546F1
:1017B0000026DFF8149102214846FFF7B5FF002804
:1017C000F9D101F07DFB002709E004EBC700D0E967
:1017D000002308EBC70000F024F806467F1CAF4248
:1017E00001D2002EF1D016B1ED1B6D1C07E001F007
:1017F00077FB002202214846FFF7A1FF002528467B
:10180000BDE8F283014682B0002001E00098401C50
:10181000009000982328F9D300220023002002B072
:1018200001E0014601202DE9F84F86B0022602961C
:101830004FF00108CDF8108003918DF8000005915C
:101840009246214E214F9B46EFF3108938680103E1
:10185000FCD472B6B06908B1012519E00721304601
:10186000FFF762FF0025C4B294B99DF8000020B9CB
:1018700001A902A801F088FB05E0059952465B46E4
:10188000012001F0EFFA002207213046FFF757FF51
:1018900089F310880DB1002001E01CB10120002067
:1018A000C0468046254318BFB8F1000FCED1386836
:1018B0004103FCD4B8F101008041C00F07B0BDE87E
:1018C000F08F000000040080001400581040005801
:1018D00020B501460648074D00E00838C2798A4223
:1018E00018BFA842F9D18A4218BF002020BD00BF0E
:1018F000F873FF1F0070FF1F70B504466078FF2863
:1019000002BFB4F8030000F47F40B0F5406F13D17C
:1019100000260D4D00E0761C297FF0B288420BD2E4
:10192000F1B255F82120204690470100F3D003D0B2
:10193000022806D0012070BD2046BDE87040FFF7A8
:1019400001B9002070BD00BF0C2400200249034AE9
:1019500001600261704700BF1F1A0008451A0008A5
:10196000006040607047EFF3108172B602688242F7
:101970000CBF012000201CE0EFF3108272B6036858
:101980000B60486001600868416024E0EFF310825A
:1019900072B6086043684B604160486801601AE0B5
:1019A000EFF3108172B642680368136002684368FF
:1019B000536081F31088704710B5EFF3108472B64E
:1019C00002680A600168FFE70846FFF7E9FF84F351
:1019D000108810BD0B6082F31088704701F0BBBB0C
:1019E0006C486D49016001F12002426001F1300351
:1019F000836001F14002026201F14803436201F198
:101A00005002C26001F15803036101F174024261A6
:101A100001F1780383618431C16101F0BABB38B54B
:101A200004465E4D2846FFF79BFF5A494868A16867
:101A30000160E2685A49C2604160856001F0C5FBFF
:101A400058482AE080B5534842681368012119724A
:101A5000406801F0C0FB002002BD38B5514C4F4D2D
:101A600004E000F041F80098216888472846FFF715
:101A70007AFF0028F5D031BD4A484168084738B59B
:101A80000446494D2846006040604249C868A16844
:101A90000160456001F0A4FB444821680160626870
:101AA0004260002032BD80B53A48C26813681021F8
:101AB0001972C06801F09AFB002002BD3548C16868
:101AC000C2683A4910680B68184738B5374C364D2C
:101AD00004E000F009F80098616888472846FFF79D
:101AE00042FF0028F5D031BD69462846FFF764BFA4
:101AF00038B504462E4D2846FFF732FF2D480060CA
:101B0000406024480069A1688160E268C2600561A4
:101B10002168016062684260216941616269826195
:101B200031BD80B501462348FFF730FFBDE80240D4
:101B30000FF2050001F063BB38B5164C1D4D06E0F1
:101B4000FFF7D2FF009920690069FFF71FFF2846C1
:101B5000FFF709FF0028F3D031BD10B5164C204621
:101B6000006040600B4948690460BDE8104001F026
:101B70005ABB1CB5104C06E069462046FFF71CFF17
:101B80000098C046C0462046FFF7EDFE0028F3D07F
:101B900013BD000000000320B8090320580A0320E9
:101BA0009C080320B0240020600A0320B8240020F1
:101BB000480A0320A8240020500A0320BFF34F8FB7
:101BC0005C495D480A6802F4E06202430A60BFF3C0
:101BD0004F8F00BFFDE710B55848594C88B00168D9
:101BE00041F400410160FFF72FF9564802680421D3
:101BF00061F3020202600020534901F049FC01F048
:101C0000D6FD01210120FFF724F9002001F07EFE1E
:101C1000012001F07BFE022001F078FE012001F09E
:101C200099FE0121002001F0AEFE4848016841F410
:101C300080510160006800F4805000900098FFF728
:101C4000CFFE434A00210220FFF78DF904F23C51F8
:101C5000009169460FF22D020FF22D00019200F063
:101C600089F804F25471029104F5C96240F23C51C2
:101C700003920591049402A8FFF73AFFFFF7AEFE26
:101C800008B010BD7047000070B50446606800F1F0
:101C90000B063188B1F5124F1ED1002001F062FE13
:101CA000B0784FF00055C0B92848016821F4805140
:101CB00001602878022802D10021297036E001F065
:101CC000F3FD0120FFF724FA00210120FFF7C1F8FE
:101CD000FEF7D4FD0120207070BD0020FFF7C6F98B
:101CE000FF2823D042F21074A0B9287802280BD123
:101CF00000212970FFF7DFF9002001F02BFE012100
:101D0000002001F09FFEFAE7022028700021002049
:101D1000FFF7B9F9002001F01DFE204601F02DFF6C
:101D20000020FFF7A3F910382028F6D3FFF746FF6D
:101D300000BF00000CED00E00400FA0508000058A8
:101D40003C00032080040058E8230020480100588C
:101D5000B71D000870474FF0FF30FFF793B8002120
:101D60000220FFF70DB90220FFF72CB90220FFF780
:101D700031B970477FB50C464E4D61684E4E2862B2
:101D80006962281D01F020FF2468746006F10800D4
:101D900000604060012000F06AF80120307069683E
:101DA00041B10FF2ED020FF2F103009201930294A0
:101DB000684688477FBD1FB53F4C04F10800FFF718
:101DC000D2FD00BB2078F0B1694604F10800FFF7AE
:101DD000F3FD3848016A49B1009A029201238DF857
:101DE000043001A888479DF8040000E0012020701D
:101DF000207818B10098FFF794FE04E0009904F1F0
:101E00000800FFF7B9FD04F10800FFF7ACFD28B9A1
:101E1000207818B104F10800FFF7A1FF1FBD2DE9DC
:101E2000F04106460F4690461C46002000F01FF881
:101E3000214D6868A0F80960C7723A4641460C30E7
:101E4000FEF71CFF1B4A0120107000215269002080
:101E5000904748F2E800FFF789FF69688A78D21C4A
:101E600004F10800FEF70AFFBDE8F041012010B5BB
:101E70001049124C496A20B901B1884700212170EC
:101E800010BD0120207011B1BDE81040084710BD01
:101E90000020FFF768BF000010B50146064C04F1B2
:101EA0000800FFF773FD04F10800BDE81040FFF7DC
:101EB00056BF0000C023002070240020D52400203D
:101EC0002DE9F14FB0B0924604910DF142013A9ADA
:101ED0002B9199464A7000200AE01AF8011B0498D9
:101EE000309A90470028049000F06A860D98401CB4
:101EF0000D909AF8000050B12528EED10021002263
:101F00000791089209910A920B910C9204E00D98A6
:101F100000F058BE41F001011AF8010F2028F9D055
:101F200023280CD02B2804D02D2805D0302809D008
:101F30000BE041F00201EFE741F00401ECE741F072
:101F40000801E9E741F01001E6E72A280FD1D9F8A6
:101F5000002052F8040BC9F8002000280F9003D588
:101F600040420F9041F004010AF1010A14E00F927F
:101F7000DFF8583C0AE00F98984205DA00EB80043D
:101F800002EB4402303A0F920AF1010A9AF800205B
:101F9000A2F130000A28EED39AF800002E2803D0D0
:101FA0004FF0FF320E9229E01AF8010F2A2809D1CA
:101FB000D9F8000050F8042BC9F800000E920AF17D
:101FC000010A1BE02D280CBF0AF1010A00200022A3
:101FD0000E92DFF8F84B0BE040B90E9AA24205DAF8
:101FE00002EB820503EB4503303B0E930AF1010A35
:101FF0009AF80030A3F130020A2AEDD3ADF8401070
:102000000FF6CC309AF8001001F0E8FD08B11AF88C
:10201000010B8DF842009DF84200682805D19AF81E
:10202000000068280CD1622106E06C2804BF9AF8F1
:1020300000006C2804D171218DF842100AF1010AC8
:1020400012A806901AF801BBBBF125012CD01C394F
:1020500000F0D681091F022940F2D281133900F025
:10206000E184093900F0CC81891E00F07685491E93
:1020700000F02385491E022940F2C281091F00F0A9
:102080001C85491F00F03181491E00F0CB84491E98
:1020900000F0D880C91E0DD0891E00F0C384C91E6F
:1020A00000F0C08400F064BD25238DF84830012184
:1020B00000F069BDD9F8000050F8044BC9F80000E1
:1020C000002C059440F0AB802B994878002800F054
:1020D000A1804FF0FF340FF6003001F08BFD201A85
:1020E00040F06E8500F050BD01236A4602A93046DB
:1020F00000F042FE002840F063856D1EF4D130965A
:10210000079D12AF75B1309E17F8012B02A930461A
:1021100000F022FE002801D46D1EF5D10028309673
:1021200040F04E850A9D3020002D8DF800000CDD1A
:10213000309E01236A4602A9304600F01DFE0028A9
:1021400040F03E856D1EF4D13096059F089D75B117
:10215000309E17F8012B02A9304600F0FDFD002843
:1021600001D46D1EF5D10028309640F029850B9DD5
:102170003020002D8DF800000CDD309E01236A46D2
:1021800002A9304600F0F8FD002840F019856D1EC8
:10219000F4D1309605980899099D471875B1309E7D
:1021A00017F8012B02A9304600F0D6FD002801D413
:1021B0006D1EF5D10028309640F002850C9D302030
:1021C000002D8DF800000CDD309E01236A4602A927
:1021D000304600F0D1FD002840F0F2846D1EF4D1AD
:1021E00030969DF8400041077FF583AE2020002CFB
:1021F0008DF800007FF77DAE309D01236A4602A96D
:10220000284600F0B9FD002840F0DA84641EF4D1BD
:1022100030956EE60FF6C030059000F0B5BC0E9D0F
:10222000002D04D5204601F005FD044607E02A46AE
:10223000204601F01BFD002814BF041B2C46089407
:1022400000F0A2BCD9F8001051F8040BC9F8001036
:1022500020F00004002121F0FF3512ABCDE902454A
:102260000593DDE9022306993C2413B90AB90E98B7
:10227000A0B102F00F05641E30353A2D08DA1209BC
:102280000D5542EA03721B0908BF002A02D105E07E
:102290002735F4E705980D19A842EAD308190590E7
:1022A000C4F13C020E98089282420ADABDF840104E
:1022B000821A4FF6EF7001400A92ADF8401000F01C
:1022C00063BC002840F160849DF8400000F01400D9
:1022D000102840F059840F9B07990A985B1A1B1A23
:1022E0009A1A002A40F350849AE32B99487820B137
:1022F0004FF0FF340FF6B020EFE69DF84200622861
:1023000060D0682817D06A283FD06C2806D0712882
:1023100047D074282CD07A281DD062E0D9F800105C
:1023200051F8040BC9F80010002866D14FF0FF34B3
:102330000FF68C20D1E6D9F8001051F8040BC9F83B
:10234000001020B94FF0FF340FF67420C5E60D9948
:10235000018000F019BCD9F8001051F8040BC9F83D
:102360000010002849D14FF0FF340FF65420B4E696
:10237000D9F8001051F8040BC9F8001000283CD11E
:102380004FF0FF340FF63820A7E6D9F8001051F8C7
:10239000040BC9F8001080B94FF0FF340FF620206D
:1023A0009BE6D9F8001051F8040BC9F8001020B9C9
:1023B0004FF0FF340FF608208FE60D9AD317C0E9CF
:1023C0000023E1E3D9F8001051F8040BC9F800101C
:1023D00020B94FF0FF340FF6E8107EE60D9901703A
:1023E000D2E3D9F8001051F8040BC9F8001020B955
:1023F0004FF0FF340FF6C8106FE60D990160C3E38C
:10240000D9F80020D21D22F00702C9F80020D2E935
:1024100000010832C9F80020CDE90201C80F02D03E
:1024200007982D210AE0BDF84000810702D50798E2
:102430002B2103E0C00705D50798202112AA1154CB
:10244000401C079012A80799DDE9024543184BF09C
:1024500020006128059321AE0BD00E98002802D5EC
:1024600006200E9005E001BF4BF0200067280121F7
:102470000E91DDE9020148004015401C0A460DD1CD
:1024800009030BD0ABF1610703201A2F089002D289
:102490000FF648110DE00FF648110AE070B912036B
:1024A0000CD1ABF1610703201A2F08901CD30FF653
:1024B000381103221846FEF7E1FB65E3DDE902016E
:1024C0006A4601F0FFFBCDE902014BF020006128D4
:1024D00011D1059830210170821C0592BBF1610F6A
:1024E0000CBF7821582102E00FF6F801E1E74170B6
:1024F0000798801C0790DDE9020120F0000231F00E
:10250000004308BF002A02D10025002445E14BF01A
:102510002008B8F1610F40F095800E98002847BF61
:1025200021210191401C0190019F7F1C20462946DA
:1025300000220023DDE9024501F0FCFB38BF85F0F5
:10254000004500998DF88420091F002F00910DF19E
:10255000850034DD0646204629460022002301F08E
:1025600003FC2BD21C2201F019FC04460D4601F09D
:10257000B3FCFF1F002F804609DD01F0C9FC0246B5
:102580000B462046294601F08BFD04460D46F01D02
:102590000721B8F1000F0CDD491E5EBF08F00F02E5
:1025A00000F8012D4FEA2818F3D502E0002200F8C8
:1025B000012D491EFAD5C61D002FCCDC30460DF189
:1025C0008501401A01990DF1850605468842C8BF6C
:1025D0000D46002D2FD4854206DA0DF18500415DB0
:1025E0000829A8BF0F2000DA0020294621AA0A44A2
:1025F00000E06D1E12F80139491E8342F9D00F2800
:1026000004D10DF18500425C521C4254002904D5CE
:102610000098001D21AE6D1C0090681E0BD431186F
:102620000A783032D3B23A2BA4BF5A443A3A401E09
:1026300001F80129F4D50E98002840F1AD80691EFB
:102640000E91A9E00099DFF8002747F29750414327
:1026500091FBF2F2009225F00045C2F10702002A38
:1026600004DD2046294600F04BFB0BE052420020DF
:10267000DFF8D81600F044FB02460B4620462946F8
:1026800001F080FD04460D46B8F1660F06BF009FBD
:102690000A3706270E983F18142FC8BF142730207A
:1026A0008DF884000DF1850000E03046002F35DD07
:1026B00006462046294601F089FE01460A4606F1F3
:1026C000080304200A26B2FBF6F606EB860EA2EB00
:1026D0004E02303203F8012C0A22B6FBF2F202EB72
:1026E000820EA6EB4E063036401E03F8026DE9D18D
:1026F000083F002F03F10806D7DD084601F078FEF9
:1027000002460B462046294601F0CAFC0022DFF8AB
:10271000403601F07BFE04460D46CAE70DF1850107
:10272000401A0DF1850604E00099491E401E0091F3
:10273000761C31783029F7D0B8F1660F02D10099B4
:10274000491C04E0B8F1650F0CBF012100210E9D6A
:102750004D19A842B8BF451E002D1DD4854204DA8C
:10276000705D3428C8BF392000DC30202946721E35
:10277000531800E06D1E13F80149491E8442F9D038
:10278000392802D1705C401C7054002904D500988F
:10279000401C16466D1C0090009C01F00DFF406A25
:1027A0000778DDF8388028B2002802DC01250FF216
:1027B0003C664BF02000662808BF641C16D06728D2
:1027C00046D120B210F1040F48DB404546DA9DF8AF
:1027D0004000641C010703D428B24045D8BF80469E
:1027E00020B2B8EB000848BF4FF000080FFA84FB96
:1027F000BBF1000F00F3B5800898411C089130220E
:1028000005990A54B8F1000F03DC9DF84000010758
:1028100004D50898411C089105990F5418EB0B0F2B
:10282000B8BFC8F1000424B26042A0442AB20B90A1
:102830009045B8BF4546059B08982DB209952A4694
:1028400031461844FEF71AFAA8EB05000C90D2E0C6
:10285000BBF1610F17D14FF0700B19E028B2404562
:1028600004DA9DF840100A0758BF8046B8F1010805
:1028700048BF4FF00008BBF1670F14BF4FF0450B86
:102880004FF0650B04E0BBF1410F08BF4FF0500B58
:102890000898411C0891B8F1000F059916F8012B12
:1028A0000A5403DC9DF8400001071AD50898411C22
:1028B0000891B8F1000F05990F5412DD6D1E28B272
:1028C0008045B8BF45460598089B2AB23146184452
:1028D000FEF7D4F908992DB269180891A8EB050004
:1028E0000B9005980899084421B2002980F800B09F
:1028F00003D42B224270821C04E02D2242700C462D
:10290000821C644200212CAB20460AE004460A20C7
:1029100094FBF0F000EB8005A4EB450403F8014BB9
:10292000491C00B20028F1DC012906DC4BF0200034
:10293000652804BF302002F8010B00292CAB08D118
:10294000302002F8010B06E0491E585C303002F8D6
:10295000010B0029F8DC059908980844121A09921D
:1029600049E028B221B288421CDA0598089B2AB2B5
:1029700031461844FEF782F908992DB2691808917A
:10298000ABEB0500B8F1000F0B9003DC9DF84000A5
:10299000020704D5059847540999491C0991CDF8B7
:1029A000308028E00598089B22B231461844FEF793
:1029B00065F908982D1B5844B8F1000F089003DC06
:1029C0009DF840100A0703D5411C089105990F5442
:1029D00028B28045B8BF45460598089B2AB206EB49
:1029E0000B011844FEF74AF908982DB228180890F0
:1029F000A8EB05000B909DF8400000F01400102893
:102A000040F0C280079A08990B988A180999821891
:102A10000C988A1882180F98824280F2B580821A28
:102A20000A92B1E09DF84200622808D068280ED0D2
:102A30006A2814D06C281FD0712810D01CE0D9F857
:102A4000001051F8040BC9F80010C0B21AE0D9F810
:102A5000001051F8040BC9F8001080B212E0D9F848
:102A60000020D21D22F00702C9F80020D2E900019F
:102A70000832C9F8002006E0D9F8001051F8040B1C
:102A8000C9F800100021CDE902019DF840000107BE
:102A90005AD5DDE90223002B08BF002A54D04BF0A1
:102AA0002000782850D1079812A930220A54401CDF
:102AB000431C079301F800B046E09DF842006228ED
:102AC00008D068280ED06A2814D06C281FD071282E
:102AD00010D01CE0D9F8001051F8040BC9F8001010
:102AE00040B21AE0D9F8001051F8040BC9F80010F0
:102AF00000B212E0D9F80020D21D22F00702C9F876
:102B00000020D2E900010832C9F8002006E0D9F817
:102B1000001051F8040BC9F80010C117CDE90201EB
:102B2000002902D507982D210AE0BDF84000810751
:102B300002D507982B2103E0C00705D5079820216F
:102B400012AA1154401C079012A80799014405913C
:102B500002A8594600F04EF816E001200790D9F877
:102B6000000050F8041BC9F800008DF848100BE075
:102B700025210122BBF1000F8DF84810079203D0E8
:102B80008DF849B0022107910F9A07980A990C9C79
:102B9000121A0898521A0B99121A0998521A121AF4
:102BA0009DF84000141B41073FF5AAAA2020002CE5
:102BB0008DF800007FF7A4AA309E2546FFF794BA4F
:102BC0004FF0FF3031B0BDE8F08F0000CBCCCC0C23
:102BD000686A6C747A4C00007072696E74665F7318
:102BE0003A2062616420257320617267756D656E9D
:102BF000740000002DE9FC4304466F29256908BFD5
:102C0000082605D041F02000782814BF0A26102697
:102C1000D4E900233C2790469946642918BF6929C6
:102C200005D1002B03D5D8F1000869EB4909B9F1AA
:102C3000000F08BFB8F1000F0CD1206B50B9082E5F
:102C40003AD194F83800010736D530203B2785F873
:102C50003B0031E08DF80010404649463246F317FC
:102C600001F0AEFC3032D0B27F1E3A2801970EDA66
:102C7000EA55404649463246F31701F0A1FC80462A
:102C80005FEA010908BFB8F1000F05D108E09DF81F
:102C900000001218513AEBE7E068E9198842DBD3EB
:102CA000082E09D194F83800010705D5E85D3028D1
:102CB00002D07F1E3020E855C7F13C02A261E9191D
:102CC000E160206B824208DA821A22624FF6EF70CE
:102CD000218F01402187BDE8F38300280ED594F8A9
:102CE000380000F01400102808D1636B6169206A75
:102CF0005B1A1B1A9A1A002AC8BF2262BDE8F38326
:102D00002DE9D04306460F4614464FF00008DFF881
:102D1000449012E0E00707D542464B46304639461C
:102D200001F074FB06460F464046494642464B4674
:102D300001F06CFB641080468946002CEAD13046D5
:102D40003946BDE8D0830000A08601000000F03FB6
:102D500084D797410000244010B503460C46114625
:102D6000A0689847A06020B1E06A401CE0620020A3
:102D700010BD4FF0FF3010BDF8B505460E461746A2
:102D80001C4600205CB117F8011BB068A847B06072
:102D900030B1F06A401CF0620020641EF3D1F2BD35
:102DA0004FF0FF30F2BD00007072696E74665F73A1
:102DB0003A20256E20646973616C6C6F77656400DE
:102DC0007072696E74663A2062616420256E2061BB
:102DD0007267756D656E7400000000006E616E00B4
:102DE0004E414E00696E6600494E4600300010B5F7
:102DF0000446FDF743FF204610BD10B504461046BB
:102E00000A460146204601F05FFC204610BD80B511
:102E1000C046C046C046C046C046C046C046C04682
:102E2000C046C046C046C046C046C046C046C04672
:102E3000C046C046C046C046C046C046C046C04662
:102E4000C046C046C046C04601F09AFCC046C046D7
:102E5000C046C046BDE8014001F008BDDFF800F003
:102E60000D2100202DE9F041414E0746307888467B
:102E700014461D46012808BF02201CD001203070D6
:102E80000021716000F019F8010012D1012F2246D3
:102E90002B4603D1404600F05EF803E01146404661
:102EA000FFF7DCFF00F009F832490A6822EA070759
:102EB0000F6000213170BDE8F0814FF47A701AE0A4
:102EC0002E49CA680020002A00D4704710B52C4A49
:102ED0002C4C0A600C60C968002948BF012010BD55
:102EE00024490A6842F000420A600020096800296B
:102EF00058BF0120704770B5054601F0B9FC064681
:102F00001D4C2068C10306D501F0B2FC801BA8420D
:102F1000F7D3032070BD2068C10744BF012222609F
:102F2000010404D54FF40042226020F400404CF22A
:102F3000FA31084004D00E4A20605060012070BD74
:102F40002068410305D501F093FC801BA842F7D30C
:102F5000DFE7002070BD10B506490C6844F001049D
:102F60000C6040F8042BBFF36F8F036010BD0000AE
:102F700048240020144000581040005808400058D1
:102F800023016745AB89EFCD2DE9F041DFF8D04053
:102F9000054620788846012808BF02204ED001202F
:102FA00020700021616000F04BF8010044D12968D5
:102FB000DFF8B070022919D14FF0FF32C8F80020B5
:102FC0006E6800E0761C6968AA6851188E4208D2C3
:102FD000304600F039F800F033F80100F2D0C8F8BC
:102FE00000607A69DFF880100A407A613A689105DA
:102FF0000FD53A6822F400723A60396841F40061F2
:1030000039603A6822F400623A60396841F400712C
:1030100039603A6851050FD53A6822F480623A6007
:10302000396841F4805139603A6822F480523A603C
:10303000396841F48061396000222270BDE8F08176
:103040004FF47A70FFF757BF08490A6822F4FF620D
:1030500042EAC00242F4803242F002020A60704743
:10306000482400200040005805F8FFFF1440005895
:10307000C0680840884201D1012070470020704795
:10308000C0690840884201D1012070470020704784
:1030900010B5684C02212046FFF7F2FF38B1606896
:1030A000C043810703D5FEF710FD022018E001217F
:1030B0002046FFF7E5FF38B16068C043C10703D57C
:1030C000FEF7CBFC01200BE008212046FFF7D8FFDC
:1030D00038B16068C043010703D5FEF74AFD0820F8
:1030E000A06010BD10B5534C02212046FFF7C0FF71
:1030F00058B96068C043810307D5606840F4003068
:103100006060BDE81040FEF7D9BC08212046FFF7FB
:10311000AFFF70B96068C04301030AD560684649D3
:1031200040F400206060086880474FF40022A260ED
:1031300010BD20212046FFF79BFF58B96068C043AF
:10314000810207D5606840F400106060BDE810405F
:10315000FEF792BC10BD394881B0016841F480117E
:103160000160006800F48010009000983448016805
:1031700041F4007101603348026842F40072026059
:1031800040BF20BF3048016841F40041016001B0F8
:10319000704780B52D48016841F4801101600068D6
:1031A00000F48010009000982248016841F001016D
:1031B0000160026842F4803202602C2001F096FB2C
:1031C000BDE802402D2001F091BB2148016849086B
:1031D0004900016070471F494FF480300860704714
:1031E0001B48016821F002010160704718484FF444
:1031F00000314160026822F400320260704738B545
:1032000004460C4D08212846FFF732FF30B10A482A
:103210000460696821F40021696031BDA0474FF462
:103220000020A86031BD0A48016821F00801016052
:1032300070470000000C0058C824002050010058BE
:10324000D4080058200800580C04005850000058BA
:10325000040C0058080C0058DFF814150A6892B2E4
:1032600000E00246086880B28242FAD17047F0B5A9
:10327000DFF80035DFF800551E7818240246624357
:10328000B0422A4404D118785870547D1C700FE065
:10329000167D507D92F815C005F115076643062886
:1032A00007F806C004D0167D143514FB00F42E5523
:1032B000012010731A78062A02BF00294FF0FF3050
:1032C0005860F0BD10B5DFF8AC44606810F1010F34
:1032D00010D0FFF7C1FF6168DFF8A02481422FBF43
:1032E000636861685388CB1851781278181A48437C
:1032F000D04000E0002080B210BD2DE9F84FDFF88B
:103300007C54DFF87CB4D5F80880D8F80000DBF8EE
:1033100000104A0500F073F9DFF85864DFF858A48C
:1033200021F4806181604FF0180934780AF10800B7
:1033300019FB04F14758FFF7C5FF874202D2002767
:10334000012105E0A9884118B94203D2AF880021C4
:10335000B17015E001223F1AB27011E00A590AF16A
:103360000803121A1A5108E009FB04F40AF10801D3
:103370000A598242F2D200230B510AEB04014C7D20
:10338000062CF1D1B8B238B9FFF766FF70600320A0
:10339000BDE8F24F01F0D8BA022802DA28780128F5
:1033A00000D07F1ED8F80000C1684A07FAD500F0A7
:1033B0002CF9DBF80C0067F30F00CBF80C00FFF7DB
:1033C0004BFF7060A8680068816841F4806181608B
:1033D000AFF30080BDE8F18F2DE9F843EFF31084DF
:1033E00072B6DFF89853DFF89033A8680168CA22F4
:1033F0004A625320486218208A6822F480628A60F8
:10340000DFF870231678374647431F4497F80CC0FF
:10341000BCF1020F24D1D7F80080D7F81090907833
:10342000D8B17A7B012A0AD101213046FFF71FFF6C
:1034300084F310887968304600F0F4F804E084F3EF
:103440001088304600F0A1F8A86800F01BF831465B
:103450004246484601F0A0FA0EE0FFF74EFF09E0B1
:10346000C8684207FCD500F089F84FF40020DFF867
:103470001413086084F31088FF22A86801684A6268
:10348000BDE8F1830068CA2141625322426270475D
:103490002DE9F041DFF8E442A160CA2209684A62DE
:1034A0005323DFF8DC224B62156845F020051560D8
:1034B000136803F00703C3F10403237095682D0C10
:1034C00005F07F056D1C65709268C2F30E02521CF8
:1034D0006280521E6A43A2F5A072DA404FF6FF7373
:1034E0009A422CBFA380A280A74A136843F400230A
:1034F0001360A64B1D6845F400251D6050BB9D4818
:10350000012383704FF0FF35456000239A4D00265C
:1035100005F10C085FFA83FC182515FB0CFC5B1CFD
:10352000DFB208F80C60062FF4DB0623037088680E
:1035300020F48060886000F021F84FF40021D16011
:10354000032001F00CFAA0680068816841F4804112
:10355000816005E0C868410544BF032001F0F4F92B
:10356000A1680A68FF20506200220321032001F0B5
:103570009FF9BDE8F041032001F0B8B9C86800F038
:10358000800060F49060C8607047F8B50746EFF3BC
:10359000108472B6032001F0B4F9784DAE6830683B
:1035A000FFF771FF3B46182079494343CA5C022A62
:1035B0001BD100213846FFF75AFE6E4801780629D4
:1035C0000ED130686E490A68530500F018F821F4EE
:1035D00080618160C1684A07FCD500F016F804E0FC
:1035E0004078884218BFFFF788FEA9680A68FF2064
:1035F0005062032001F07AF984F31088F1BD02D5FE
:10360000C1684A07FCD481687047C16801F0800135
:1036100061F49061C1604FF400205A4908600320B2
:1036200001F09DB92DE9F04704461825524E684334
:1036300037188A46397B022904BF2046FFF7A5FFC9
:10364000EFF3108972B6032001F05BF9DFF82C81EB
:10365000D8F80800FFF716FF02203873C7F808A053
:10366000C7F804A0DFF80CA19AF80000062808D1DA
:1036700000F076F878754FF0FF31CAF8041000209A
:1036800056E0FFF71FFEB9680918B96006F1080394
:10369000B9689AF800206A439A5891422AD39AF856
:1036A000002004E006F1150E6A431EF8022006F120
:1036B000150315FB02FC13F80C30062B06D006F19F
:1036C000080C6B435CF803309942EBD21146694316
:1036D00006F1150E1EF80130062B05D006F1140C6C
:1036E00015FB03F50CF805407B753A7506F11502DC
:1036F00054541DE09AF800109AF800C0614515FB7B
:1037000001F20FD006F1140E06F1150C1EF802306E
:1037100015FB03F50CF8054079753B7506F11401AE
:103720008C5403E006F1140379759C5400F018F8EA
:103730009AF800109AF801208A4202D0FFF7DDFDC6
:1037400002E0B968081AB860FF20D8F808100A68C3
:103750005062032001F0CAF889F31088BDE8F087B1
:103760009AF800108AF801108AF8004070470000AB
:1037700028280040C0240020D021002080240020E0
:10378000082800400C08005800080058800800581D
:10379000DC2100203E4900E03E4981B00A68024336
:1037A0000A60096808400090009801B07047F0B5C1
:1037B00085B001F005F901F005F93748016841F4D9
:1037C00080310160002601F028F91421684601F0DB
:1037D00061F9002500240021304A02EBC1029079F2
:1037E00088B11368B3F1904F0BD02D4FBB4205D079
:1037F0002C4FBB4207D19088044304E092881543C4
:1038000001E090880643491C2629E5DB002102914E
:103810000122032101920391B0B288B100900120EE
:10382000FFF7B8FF0120FFF7B7FF69464FF0904060
:1038300001F034F90022B1B24FF0904001F0FAF9F2
:10384000A8B280B100900220FFF7A4FF0220FFF78A
:10385000A3FF134E6946304601F020F90022A9B2B9
:10386000304601F0E7F9A0B280B100900420FFF7E4
:1038700091FF0420FFF790FF0A4D6946284601F0AA
:103880000DF90022A1B2284601F0D4F905B0F0BD2F
:103890004C0000584C01005890080058AC06000835
:1038A000000400480008004800B587B04FEA0D004A
:1038B00009A11C22FDF7E2F9FEF74FF96846FDF772
:1038C00008FC07B000BD002001F0D5B913460A4638
:1038D0000146002001F0E4B90000000000000000F3
:1038E00000000000AC060008280003202C00032084
:1038F00026040400DFF8201181B00A6802430A6040
:10390000096808400090009801B0704778B585B00C
:10391000044600F07BF80220FFF7ECFF0FF20411E1
:10392000DFF8F86031F81450009501210191002270
:10393000022102920391694656F8240001F0AEF884
:1039400000F002F806B070BD56F8240000222946A7
:1039500001F070B910B500F00DF8BDE8104001227B
:1039600001F068B910B500F005F8BDE8104000227C
:1039700001F060B90FF2AC03DFF8A04033F810108B
:1039800054F82000704730B585B004460D4600F06D
:103990003DF8200008BF042004D0012C18BF022CE1
:1039A00002D10820FFF7A6FF2900DFF874200FF2EC
:1039B0007C000ED130F814100091002301930121F6
:1039C00002230291039300F01CF8012000F0D5F8C7
:1039D00015E0012D13D130F8140000904FF40413BA
:1039E0000295019300F00DF80FF24800045D0022EB
:1039F0000F2160B200F05CFF60B200F077FF05B00D
:103A000030BD694652F8240001F048B81422002164
:103A1000684601F0FBB900004C00005870200020FF
:103A20007C200020200001000200000010000100A6
:103A3000020000000A0607001148016841F4807185
:103A40000160704710B50C460E490028086805D182
:103A5000810507D501F0EAF920B110BD810558BFF5
:103A600001F0DEF90848016821F00401012C016031
:103A700001D130BF10BD40BF20BF20BF10BD00002E
:103A8000000400581404005810ED00E038B5474910
:103A9000474C4FF40040086000F080FF606C40012C
:103AA0000ED5606CC0000BD4FFF7C6FFFFF7C4FF54
:103AB000206C40F480302064206C20F4803020643E
:103AC0003F22206840F480102060216801F48011BA
:103AD00000913F210098374841604261016841F4FC
:103AE0007C110160026942F47C120261016841F0BC
:103AF0003F010160026942F03F020261FFF79CFF53
:103B0000FFF79AFF206C40F001002064206C8007D2
:103B1000FCD50125606C65F38F3060640022264877
:103B200001680260036903F050030361FFF784FF3B
:103B3000FFF782FF206C65F3092020640F21206CC1
:103B400040F40040206447F6FF721C481C4C816022
:103B5000C260046001F08CF9CA2060625321616286
:103B6000FF21A068C008C000A0606162FEF733F8C2
:103B70004FF0FF30FDF786F9FAE738B5044600F05C
:103B800077FE14F1010F054609D000F016FF241846
:103B900005E00C48016821F00401016030BF00F02D
:103BA00067FE401BA042F4D331BD00001040005816
:103BB00050000058040C005880080058E8230020EA
:103BC0000028004010ED00E00249034A0160026154
:103BD000704700BF7F1A0008A71A0008C9B2027810
:103BE0008A421AB11CBF10F8012FF9E718BF002054
:103BF00070472E0080B500B906A005490B681BB1BF
:103C000022220021984701E001F0D4F9222002BDD0
:103C1000D0240020636F6E73747261696E742068C3
:103C2000616E646C65723A20626164206D657373C5
:103C30006167650000F10103810704D010F8011BE2
:103C4000820781B1FAD10268A2F10131914311F0EA
:103C5000803104BF50F8042FF6E709BAB1FA81F1B8
:103C600000EBD100401CC01A70470000C9B28307A6
:103C700006D0521E22D310F8013B9942F7D11FE023
:103C8000083A13D302F1040241EA012141EA014159
:103C900050F8043B121F21BF4B40A3F1013C2CEA1A
:103CA000030C1CF0803FF3D0C9B2001F083210F89B
:103CB000013B521E28BF91EA030FF8D818BF01201C
:103CC000401E704710B5144600F002F8226010BD87
:103CD000C1F30A5343B14A0012F5001F28D2A3F2E0
:103CE000FE32A1EB0251704750EA410C20D001F0A6
:103CF000004C31EA0C01B1FA81F204BFB0FA80F352
:103D0000D2180B3AB2F120032CBF00FA03F1914014
:103D100041EA0C013EBFC2F1200C20FA0CF319431A
:103D20009040524240F2FD33D21A01EB03517047EA
:103D30000022704741EA030C50EA4C0C52EA0C0C8A
:103D40004FF4001C09D307D01CEB410F9CBF1CEBA8
:103D5000430F8B4208BF824270471CEB430FFBD8D6
:103D6000994208BF9042704741EA030C50EA4C0C5C
:103D700052EA0C0C4FF4001C09D307D01CEB410F86
:103D80009CBF1CEB430F994208BF904270471CEB4D
:103D9000410FFBD88B4208BF82427047124254D475
:103DA00040F2FF7C1CEA11530FD0634531D09B18C1
:103DB00063453CBF01EB0251704701F0004141EA0D
:103DC0000C510020AFF30080704750EA410320D02F
:103DD00001F0004C91EA0C011CD0B1FA81F30B3BCD
:103DE0009A420DD9D21A994051EA0C01C3F1200C24
:103DF00020FA0CFC61449840531C40F2FF7CD7E74A
:103E0000914041EA0C01C2F1200C20FA0CF3194355
:103E100090407047B0FA80F31533202BE0D3202A6E
:103E2000EED3203A203B9A4209D9D21A00FA03F184
:103E300041EA0C010020531C40F2FF7CB8E700FA75
:103E400002F141EA0C0100207047524240F2FF7C2F
:103E50001CEA11530DD06345DBD0B2EB030C3CBF21
:103E6000A1EB025170470CF1010221EA035141F428
:103E7000801150EA410CCCD001F0004C352A27DCEF
:103E800030B481EA0C01B2F1200309DAC2F1200357
:103E9000044601FA03F5D0402843D1409C400CE091
:103EA000C3F12002450020FA03F418BF44F00104D6
:103EB00021FA03F091400C43002174F1004550F1C8
:103EC000000051EB0C01244230BC7FF47BAF704703
:103ED0006146002076E70000C1F30A5340F21E421B
:103EE000D31A0CDDCA0283F3070342EA505242F0B0
:103EF0000042DA4002EBE17282EAE17070476FEA59
:103F0000E17203F2E13008B182F000407047000036
:103F100010F0004160B148BF4042B0FA80F29040DA
:103F2000D21CC2F5846241EA025202EBD021400564
:103F300070470000841A71EB030604D26E40001B28
:103F4000B141121973414FF4001C1CEB410F34BFF7
:103F50007CEB430683E00C0DA4EB1356362E00F3E6
:103F60007C80012E45EAC32341DC43EA525312BF51
:103F7000D20292025B08240545EAC12141EA505170
:103F8000D2EBC020994125D407D1B0FA80F610FABF
:103F900006F162D00020203608E0B1FA81F6B14087
:103FA000C6F1200220FA02F21143B0404FEAF47445
:103FB000B4EB465434F001064FEA74040AD8D6F53F
:103FC0000016760D04F00044F04061FA06F250400D
:103FD000F1404840C00A40EA415021F0004128BF6A
:103FE0005FEA500550F1000044EBD12135E0DB0AD7
:103FF00045EAC121C90AB6F120050EDD42EA0242B6
:10400000120CC5F1200603FA06F6EB4042EA06055B
:104010006D42984161F100010DE062FA06F5F2404F
:10402000554063FA06FC82EA0C02F3405A406D42A6
:10403000904161EB030111F4801F05D1641E6205FC
:1040400002D06D004041494121F48011430875F1CF
:10405000004350F1000041EB045170BC70471CEB71
:10406000410F15D223F0004352EA43060BD04FEA2A
:104070004C0CBCEB410F04D80C0D661E342EB7DD82
:10408000EBE7801A994150EA410608BF0021E4E7B6
:1040900008BF1CEB430F28BF6FF00001DDE70000F5
:1040A00070B491EA030F4FF000457FF543AF6B40CA
:1040B000841A71EB030603D2001BB141121973413C
:1040C0004FF4001C1CEB410F34BF7CEB430442E077
:1040D0000C0DA4EB1356352E4FDC45EAC323DB0A47
:1040E00045EAC121C912B6F120050DDD63FA05F6D6
:1040F000EB4086EA0305124218BF45F00105C018DF
:1041000051F100010CD213E062FA06F5F24055407D
:10411000F3415A40B340F3405A408018594107D305
:1041200049085FEA30005FEA350528BF45F0010520
:1041300001F58011420875F1004250F1000041EB99
:1041400004514E0016F5001F70BC38BF70470020A8
:10415000090D090570471CEB410F10D252EA4306C6
:104160000BD0BCEB410F05D80C0DAB43661E342EB3
:10417000B6DD02E0AB438018594170BC704770BC9B
:1041800070470000F0B540F2FF7581EA030C0CF0B7
:10419000004C15EA11541DBF15EA1357AC42AF424B
:1041A000E5E0BC41C1F31301C3F31303801A994145
:1041B00043F4801304D2641E001849418018594109
:1041C000C90241EA5051B1FBF3F603FB1611A2FB01
:1041D0000675D7EBC020A94102D2761E801859413E
:1041E000C90241EA5051B1FBF3FE03FB1E11A2FBD1
:1041F0000E75D7EBC020A94103D2AEF1010E801895
:104200005941890241EA9051760546EA8E2EB1FB6A
:10421000F3F603FB1611A2FB0675D7EB8020A9412C
:1042200002D2761E80185941C90241EA50514EEA25
:10423000060EB1FBF3F603FB1611A2FB0675D7EBD6
:10424000C020A94102D2761E80185941C90241EA14
:104250005051B1FBF3F703FB1711A2FB0735D3EB6A
:10426000C020A94167F100070CBF004247F00107D9
:1042700066F3D5274FEA1E31B80814F5806412DDC5
:10428000BD0775F1004250EB0E5051EB045111F592
:10429000801F5CBF41EA0C01F0BD4CF07F6141F032
:1042A000E0410020F0BDBD076D0840EA0E5041F42A
:1042B0008011D4F10104B4F120060ADAC4F1200619
:1042C0000200E04001FA06F3E1401843B240154312
:1042D0000EE0342C13DCC6F1200445EA40056D08DD
:1042E00020FA06F2154321FA06F0A1400D43002101
:1042F00075F1004250F1000051EB0C01F0BD0020BF
:104300005FEA0C01F0BDCFB992185B41B3FA83F7B5
:1043100004BFB2FA82F6BF190B3FB7F120062FBFD8
:1043200002FA06F3BB40C7F1200622FA06F638BFB0
:104330003343BA401CB1E419641E33E77F4231F0C5
:104340000041B1FA81F404BFB0FA80F6A4190B3C25
:10435000B4F120062FBF00FA06F1A140C4F12006F7
:1043600020FA06F638BF3143A0403C1B1AE7AC42A6
:104370001ABF05EA1357AF4212E050EA41061CBFCC
:1043800052EA4306BFE750EA4107304661461CBF88
:1043900041EA0551F0BD52EA430C08BFC143F0BDEC
:1043A00000204FF4001616EB410F98BF16EB430F99
:1043B00008BF16EB410F24BFC14305E016EB430FC6
:1043C0000CBF61464CEA0551F0BD0000400D40F2C3
:1043D0001E4C40EAC120BCEB115C40F0004003D40D
:1043E0008CF30701C84070476FEAE1707047000026
:1043F00050B1B0FA80F18840C91CC1F5846109054B
:1044000001EBD021400570470146704730B540F2BE
:10441000FF7C1CEA11541DBF1CEA13556445654519
:104420003FE0641981EA030C6FF35F530CF0004C1A
:1044300043F48013C90241F0004141EA505EC502D5
:104440001100A5FB020200284FF00000EEFB012046
:104450004FF00001E3FB052118BF42F001024018B4
:1044600000214941E3FB0E01A4F580640D0302D253
:1044700092184041494154F1010470DD450872F140
:10448000004250F1000051EB0451A1F5801102D41B
:1044900041EA0C0130BD40F2FF7E4CEA0E51002093
:1044A00030BD0CEA1355644518BF654581EA030C1D
:1044B0000CF0004C41D050EA410E1CBF52EA430EB2
:1044C00002E06146002030BD24422C441BD15FEA4B
:1044D000050EF6D0090302BF01460020AEF1140E0E
:1044E000B1FA81F5AEEB050401FA05FE0C35C5F114
:1044F000200100FA05F5C8404EEA000E6FF35F5345
:1045000043F480139CE733F00043B3FA83F504BF10
:10451000B2FA82FE75440B3D641BB5F1200E2FBF2D
:1045200002FA0EF3AB40C5F1200E22FA0EFE38BFA0
:1045300043EA0E03AA40641C7CE750EA410E14BF14
:1045400052EA430E6FF000014FF4001515EB430FD4
:104550008EBF194615EB410F9DE7B4D830BDD4F19D
:104560000104B4F120050FDAC4F12005520828BF78
:1045700042F0010210FA05FE01FA05F57244E2BFAD
:10458000E0402843E1400FE0352C9ADCC5F12004DF
:1045900052EA400220FA05F218BF42F0010231FA55
:1045A00005F0A1400A43002172F1004250F10000E1
:1045B00051EB0C0130BD000000487047D4200020B2
:1045C000D3BBD9B1B2F5803F5BD2022A1ED98C464B
:1045D000B1FBF2F102FB11C31B0443EA1043B3FB2E
:1045E000F2FC02FB1C3380B240EA0343B3FBF2F05F
:1045F00002FB103240EA0C4000237047022A05D922
:104600008446B0FBF2F002FB10C270474AB105D1FC
:1046100000F0010249085FEA3000704700220023E1
:10462000704700F0CBBC0B00020000210020704757
:10463000F7D3002200237047904271EB030CF2D3B2
:1046400070B5B1FA81F4B3FA83F52C1BA340C4F121
:10465000200532FA05F63343A2405FF00046E640FB
:1046600002E05B085FEA3202841A71EB030524BFA3
:10467000204629467641F4D302000B003000002189
:1046800070BD70B5B1FA81F4B2FA82F5C4F12004BC
:104690006419B4F12006DAD3B2405FF00044F4406C
:1046A000002502E052085FEA3303C61A71EB020EDE
:1046B00024BF3046714664416D41F3D302000B00C4
:1046C0002000290070BD00004018491C1CBFB1F13A
:1046D000010100F8012DF9D1704700001FB54178A4
:1046E0000024FF2949D1B0F803104E4A40F6014397
:1046F000C91A04D012392ED0091F1AD03DE05388B0
:10470000B0F807105B1C99420BD1002200F10D0399
:104710008DF80C2002930124B0F80B108DF80D10C9
:1047200015E0D288521C914227D101248DF80C400B
:1047300006E0117A09B31472032201248DF80C20CB
:1047400000F10D030293B0F80B008DF80D0002A8E4
:1047500000F036FC11E0D288B0F80710521C9142EC
:104760000BD100F10A0201920022437A0093002348
:10477000B0F80500FCF75AFE0124204604B010BD35
:1047800010B586B02848274CFCF7C2FF00940823D8
:104790005FF0010225A10220FCF769FD00210491D0
:1047A0000191A01C05900A22012304210392029387
:1047B00000910423B4F8000020A20221FCF7A5FD1B
:1047C0000021049102910191201D05900A222021CF
:1047D00003920091012320881CA20221FCF795FD81
:1047E000A01D05900121049100200A2203230190BD
:1047F0000421039202930091F823208817A202213A
:10480000FCF783FD0020207206B010BD1CB500919E
:104810000124044881880472012300880022FCF7E7
:10482000CFFD16BD8C240020DD4600088FE5B3D5F2
:104830002E7F4A982A487ACC20FE000019ED82AEDD
:10484000ED214C9D4145228E22FE000019ED82AEE5
:10485000ED214C9D4145228E23FE000019ED82AED4
:10486000ED214C9D4145228E24FE00007047000042
:1048700001484068704700BF642000200901020021
:1048800002D43C48815470473B4B02F00F021A445B
:1048900002F8041C7047394B19684FF6FF020002FA
:1048A000114000F4E0600843354908431860704740
:1048B00070B5324B1C68C4F302230124C3F1070511
:1048C000052D2EBF0F2504FA05F56D1E1E1D072EA2
:1048D00034BF0023DB1E2940994004FA03F3BDE8EE
:1048E00070405B1E1A401143C8E70000010007D466
:1048F000012200F01F01234B8A40400943F8202089
:10490000704701000BD4012200F01F011E4B8A40AA
:10491000400943F82020BFF34F8FBFF36F8F7047DC
:1049200010B5401EB0F1807F01D3012010BD174C9F
:1049300060600F214FF0FF30FFF7A0FF0021A16062
:1049400007202060002010BD010007D4012200F0E4
:104950001F010F4B8A40400943F820207047010097
:1049600007D4012200F01F010A4B8A40400943F896
:104970002020704700E400E018ED00E00CED00E0BE
:104980000000FA0500E100E080E100E010E000E056
:1049900000E200E080E200E010470000032010B5D4
:1049A000FFF779FF0F2000F0B9FB0024002814BFA7
:1049B000012400F0D5FB204610BD08480078704760
:1049C000074805E00648016841F0020101607047B0
:1049D000016841F00101016070470000642000207F
:1049E000042004E038B5EFF3108472B6274D694611
:1049F000281D00F0D2FC6946281D00F02EFD38B1BC
:104A000084F31088BDF80010214AFEF75FFF31BD26
:104A10000120287084F3108831BD80B5FEF753FF64
:104A2000022100910023194800F124014FF4805223
:104A3000001D00F096FB01BD00BFF8B5144600262E
:104A4000EFF3108510F1010F1ED001281CBF0228C2
:104A50004FF0FF3618D1BCB1264672B60B4F01237A
:104A600092B2381D00F092FB00281CBF3978002953
:104A700008D000223A7085F31088A1B2044AFEF7EC
:104A800025FF01E085F310883046F2BD18100020A4
:104A9000E5490008002200F02DBD00002DE9F04F8F
:104AA0000027674A674B4FF00F0805460E4638E06F
:104AB000654CA54214BF072404248C40634944EA92
:104AC0000E0441F82C40C143D3F800C0746801EAD9
:104AD0000C0CE40248BF40EA0C0CC3F800C0D3F849
:104AE00004C0746801EA0C0CA40248BF40EA0C0C34
:104AF000C3F804C0D2F800C0746801EA0C0CE403E7
:104B000048BF40EA0C0CC2F800C0D2F804C001EA69
:104B10000C0C7168890348BF40EA0C0CC2F804C051
:104B20007F1C316831FA07F000F082800124BC401C
:104B300014EA0100F4D04FEA470C032101FA0CF10A
:104B40006FEA010E716801F00309B9F1010F1CBF92
:104B500001F00301022912D1A968D6F80C900EEADF
:104B6000010109FA0CF949EA0101A960696821EA21
:104B700004047168C1F30011B9400C436C60B900C2
:104B8000347904F00304032C21D0EC68D6F80890A3
:104B90000EEA040409FA0CF949EA0404EC603479D9
:104BA00004F00304022C12D1FC0805EB840401F08C
:104BB0001C09D4F820A008FA09FB2AEA0B0AD6F847
:104BC00010B00BFA09F949EA0A09C4F820902C68D8
:104BD0000EEA040E347904F0030404FA0CF444EAF7
:104BE0000E0CC5F800C0746814F4403F98D0DFF88C
:104BF0005CE04FEA970C5EF82C4001F00C0108FADB
:104C000001FE24EA0E0EB5F1904F08BF00240ED02D
:104C10000F4CA54208BF012409D00E4CA54208BF85
:104C2000022404D00C4CA5427FF442AF032444E795
:104C3000BDE8F08F0AB18161704781627047000062
:104C40008008005800080058001000480800014083
:104C50000004004800080048000C0048624900E0D9
:104C6000624981B00A6802430A60096808400090FE
:104C7000009801B0704790B95D485E4901604FF4FB
:104C8000E132426000230C224FF400418360C36094
:104C9000036183614261C161836200F045BC70477A
:104CA00038B5002488B9544D51482B60514B0360EE
:104CB00000F07DFC012805D007D3032804D038BFBD
:104CC000022402E0012400E00324204632BD002833
:104CD00004BF474800F0B4BC704718B94448C06FDF
:104CE00001F029BA704738B586B0044614216846E9
:104CF000FFF7D0FE22683F498A4261D10220FFF7C8
:104D0000AFFF0221019100220292402000F05AF8E8
:104D10003A4D2846FFF7C2FE0220FFF7A1FF02210D
:104D2000019100220292802000F04CF82846FFF703
:104D3000B5FE0120FFF794FF0221019102914FF48B
:104D4000006000F03FF84FF09040FFF7A7FE2C48BE
:104D50002C4D826A012161F3010282620022016806
:104D600041F4804101600F21006800F4804005900B
:104D700005982420FFF79CFD2420FFF7B7FD0220B3
:104D8000FFF76CFF0420FFF769FF1F4828600F2121
:104D9000696000201022E86080216861A861E861F4
:104DA0002862AA602961284601F0A6F8E567AC628E
:104DB00000220F213A20FFF77BFD3A20FFF796FDF6
:104DC00007B030BD03210090039107220492694689
:104DD000704700680749884204D1074A10680028D4
:104DE00018BF004770470000480000584C000058AA
:104DF0003C21002000380140CC2400200004004861
:104E000060000058E02200204404024010B504462F
:104E100010460A4601462046FFF756FC204610BDC4
:104E20001048016841F480410160704710B50D4A97
:104E30000D4B106820F48040106032211C680B4834
:104E4000B4FBF0F0484300E0401E51698B0501D5EA
:104E50000028F9D15069810501D5032010BD00203B
:104E600010BD0000000400588820002040420F00C0
:104E700038B5040052D094F8210028B9002184F8F4
:104E800020102046C046C0460220DFF8B81084F843
:104E900021000A68D00645D42268CA2151625320F5
:104EA0002168486200F04BF8FF2510B100F03FF890
:104EB00034E02168DFF890008A6802408A60226846
:104EC0009368606821690343A0690B4303439360BF
:104ED0002068E168016120680169A26841EA024135
:104EE00001612068C16821F08001C1602068C16C47
:104EF00089088900C1642268D36CE16960690B4349
:104F00000343D36421688868810609D400F015F84A
:104F100030B100F00CF8002084F82000012032BDF0
:104F200020684562012184F82110002032BD2068EC
:104F30004562042184F821107047204606E020468F
:104F40001DE000000C280040BFFF8FFF38B504466D
:104F50002068C16821F0A001C160FFF789FC054607
:104F60002068C168880608D4FFF782FC401B40F225
:104F7000E9318842F4D3032032BD002032BD38B578
:104F800004462068C1684A0612D44FF0FF31C16060
:104F9000FFF76EFC05462068C168480608D4FFF795
:104FA00067FC401B40F2E9318842F4D3032032BD54
:104FB000002032BD012001F07DB9000070470000E3
:104FC000F8B506464A4D307920B1012824D003288F
:104FD00057D0F1BD31680A78012A4FF0006004D043
:104FE000022A09D0072A0FD0F1BD002328606B7474
:104FF00000F08AF82B74F1BD012228606A7400F079
:1050000083F800212974F1BD01228DF80020694642
:105010000220FFF7FBFBF1BD747900271EE0316829
:1050200005F1080339441844FBF728FE00F066F840
:105030000028FBD1D5F800C0D5E90223DCE9000146
:10504000994208BF904209D10CF108002860287CE1
:10505000C0F10800241AC71900202874287CC0F168
:1050600008029442DBD2002CC5D0316805F1080358
:10507000224639441844FBF701FE287C24182C747E
:10508000F1BD287CA8B1C0F1080105F10803FF2299
:105090001844FFF719FB03E000F030F80028FBD1BB
:1050A0002868D5E90267D0E90023BB4208BFB242B5
:1050B000F2D1687C90B101289DD14FF000520021BF
:1050C0001170BFF34F8F0B490B480B6803F4E0637B
:1050D00003430B60BFF34F8F00BFFDE7FBF7C6FF35
:1050E0000020FBF7C3FF01210020FEF7ABFCFAE72D
:1050F000302400200CED00E00400FA0528680122AD
:1051000005F10801FCF74FBB3068C178297032689F
:105110009078687031684878A870704770B50F4E05
:10512000044630780025A8B101F013F932784FF425
:105130007A71B1FBF2F2B0FBF2F0FFF7F1FB48B984
:10514000102C07D2002221464FF0FF30FFF7B0FBB2
:10515000B46000E00125284670BD00BF6420002037
:10516000704730B5039C016000250021C16041619A
:105170000561A107856142600381047704D5008938
:1051800010B14FF0FF3030BD002030BD2DE9F84F99
:10519000064684B03089002500270C46BB4600280F
:1051A0000CBF4FF00208D846716999B180B93069D7
:1051B000756800F1010CAC4528BFACEB050C3568F7
:1051C000285C15F80CC000EB0C25AD1CADB203E05B
:1051D000054600E000B102463069D6F80CC06045D3
:1051E00023BFD6F804E0AEEB0000401B002008EB24
:1051F000020E03FB0EFC844532BF0020B0FBFEF91B
:105200000EFB1900C0B2804509DA96F81CE05FEA8F
:10521000CE7948BF83465FEA8E7048BFC346100010
:1052200000F0B7807068614459448842C0F0B18092
:10523000B94693460294ADF80020039357E08207E5
:105240003CD53089002840F0A48032681A44270AEF
:1052500002F8024C2246D6F800C09C440CF8017CAF
:10526000274630681844FBF709FD7169B069611879
:105270007161401C019CB06117E09CB3307FC20794
:10528000DDD5308948B930681844FF2100F8021C88
:10529000FF223168194401F8012C00277069241895
:1052A00074615C463089002340B931680C70200A73
:1052B0003268507002237069801C706108EB04052D
:1052C0000020ADB230616CB1BA440298D6F800C08B
:1052D00000EB0A0122460CEB0300FBF7CFFC7069E0
:1052E0002418746109F10109B069401CB061039A86
:1052F00070683169914542D2691881422CBF081A01
:105300000846306103463089A8B93168BDF800000D
:10531000C8545B1C7068834228BF1B1ABDF800008C
:105320003168000AC8545B1C7068834228BF1B1A8E
:105330007069801C70617468BDF80000E41A8442D2
:1053400088BF044602990BFB09FAABEB04025C45EB
:105350005144019203D090D2307F00288DD137681C
:105360002246F818FBF78AFC7069201870612746FE
:10537000BDF80050019C45440023ADB2A3E708EB03
:10538000010282422CBFA2EB0008884430684044EE
:1053900000E0002005B0BDE8F08FF0B50246002324
:1053A000108900280CBF0225002554690026002C16
:1053B0004FD060B9D36857685E1CBE4228BFF61B49
:1053C0001768FB5CBE5D03EB0626B6B200E006463E
:1053D000137F03F00303012B23D14FF6FF739E428B
:1053E00008BF002808D0D36817699F4219D2C0B1FE
:1053F0005768FB1A834214D25668D368A41B1C1941
:1054000054610024D46058B9012E94BFC6F101063E
:10541000012610680378805D03EB0026B6B200E039
:105420000646D7685468E819A04228BF001B1368D5
:10543000D2F814C00344A819BCEB000005D0F7193A
:10544000ED19A54228BF2D1BD56050619069401E03
:10545000906101B10E801846F0BDF0B502460024FF
:10546000108900280CBF0225002553690026002B57
:105470003BD0D468234658B95768661CBE4228BF43
:10548000F61B176817F804C0BE5D0CEB062600E09B
:105490000646177F07F00307012F1ED14FF6FF7C4A
:1054A000B7B2674508BF002807D15068002301281C
:1054B00094BFC0F1010001200AE01769A7420CD295
:1054C00058B157683C1B844207D20023064604E0CB
:1054D00014682678205C06EB00265068EC1884429D
:1054E0002CBF251AED181068441901B10E80204612
:1054F000F0BD000000B500BF130096469446103979
:1055000028BFA0E80C50FAD85FEA417C28BF0CC045
:1055100048BF40F8042BC90728BF20F8022B48BF1A
:1055200000F8012B00BD000038B5040009D004F1DB
:105530008405696809B900F01EF800F021F8012817
:1055400001D1012032BDA06A08B100F02AF800F0B4
:105550000AF821F02A01FFE7816000F01BF8BDE89E
:10556000324000F064BB2068416821F49041416002
:10557000206881687047002028702046FFF7B3BB81
:1055800024216960206802685208520002602046A7
:1055900000F0E4B92068016841F001010160204693
:1055A0007047204600F0E0BA284600F094BB38B5BA
:1055B000044604F154051346686B202832D121B308
:1055C000180022D021652B806B800020E863212108
:1055D0006963A86AD8B1DFF87813C162DFF8740391
:1055E000A96A0863A96ADFF8700348630020A96A02
:1055F00088632068216D00F12802A86A00F0E8FCA9
:1056000028B11020E86320216963012032BD2168A0
:105610004020086200F008F841F0800100F00CF82A
:10562000F8D132BD022032BD206800F1080151E8F6
:10563000001F00F10803704743E80010002870477E
:105640002DE9F041054640F60F0C2A68D369104653
:1056500013EA0C0F0768966805F15C0407F0200058
:1056600003F020010DD1002914D010B9F00040F151
:105670008C80A169002900F03B812846BDE8F041FB
:105680000847DFF878C716EA0C0F04BFDFF870E7A9
:1056900017EA0E0F79D05FEAC37E48BF5FEAC758AA
:1056A00007D54FF0010EC2F820E0626B42F0010214
:1056B00062639A070AD5F20708D5D5F8008002225E
:1056C000C8F82020626B42F0040262635A070AD5D0
:1056D000F20708D5D5F800800422C8F82020626BB4
:1056E00042F0020262631A070DD5002808BF16EACD
:1056F0000C0F08D0D5F800C00822CCF82020626B2F
:1057000042F0080262631A0509D57B0107D52F68AC
:105710004FF400623A62626B42F020026263626B95
:10572000002A31D031B108B9F00003D5A16909B11F
:1057300028468847606B29688A68510602D410F0B1
:10574000280F1CD000F0E0F828688168480611D5C1
:1057500000F0DDF8FCD1606A60B10FF25571816331
:10576000606A00F0ADFC00280ED0606A816BBDE875
:10577000F04108472846BDE8F04100F01DBE28462C
:1057800000F01AFE00206063B2E02069012871D1A8
:10579000D8066FD5F9066DD5102010622968886883
:1057A000410630D5616A0868406880B20028EBD0B5
:1057B00022889042E8DA6080086801688A061AD474
:1057C00000F0B3F821F4807100F09AF8F8D100F0FD
:1057D00075FAFCD100F0AEF8FCD120202063002146
:1057E000216100F0A2F821F0100100F089F8F8D151
:1057F000606A00F031FC0220606121886088091A2B
:1058000089B2284632E0228861886088511A0028CF
:105810001CBF88B200286BD02A46106850E8003FB1
:10582000054623F4907300F065F8F6D1106800F196
:10583000080300F1080653E8003FDFF810030340B7
:1058400046E800300028F1D12020206300232361A6
:10585000A361136853E8003F156823F0100300F0BC
:1058600049F8F6D10220606189B21046BDE8F041E6
:1058700000F0A3BDD80209D5710207D54FF48010FE
:1058800010622846BDE8F04100F098BD180609D521
:10589000390601D4300205D5E16949B32846BDE88F
:1058A000F0410847580611D579060FD500F03DF8AC
:1058B00021F0400100F024F8F8D12020E06200211E
:1058C000E1612846BDE8F041FFF783BA180206D52A
:1058D000790004D52846BDE8F04100F070BDD8013C
:1058E00048BF002F04D52846BDE8F04100F068BD50
:1058F000BDE8F08145E800300028704721F4F071E0
:1059000042E8001000287047284600F04ABA29688B
:1059100001F1080252E8001F286800F1080321F095
:10592000400143E8001000287047286850E8001F35
:1059300002467047286800F1080151E8001F00F195
:10594000080321F0400143E80010002870470000E0
:10595000195E0008595E0008615E0008F8B504464B
:10596000DFF8740522681368A168034020690B43BF
:1059700061690343E0690B430343136000255168E9
:10598000E06821F4405101435160A369DFF84C15F0
:105990008A421CBF206A03439668DFF84405DFF89B
:1059A00044E5DFF8447506403343936068A6D36A44
:1059B000606A1B0940EA0313D3627245DFF82C05C5
:1059C0004FF4004338D13F6807F00307032F4CD84A
:1059D000DFE807F0024542484FF0010CE169B1F5FC
:1059E000004F4FF6F07740F07F80BCF1010F09D0F7
:1059F000BCF1020F0AD0BCF1040F70D0BCF1080F4B
:105A000070D098E000F0BBFC002814D0626A616896
:105A100036F81230B0FBF3F04A0802EB4002B2FB5A
:105A2000F1F0A0F11001B942EBD20740C0F34200FF
:105A300007432068C7607FE08A4216D13F6817F4A9
:105A4000406723D0B7F5806F09D0B7F5006F03D05A
:105A5000B7F5406F06D008E04FF0020C07E04FF0BA
:105A6000040C04E04FF0080C01E04FF0100C8A42E7
:105A7000B4D1BCF1000F09D0BCF1020F0AD0BCF1C7
:105A8000040F15D0BCF1080F15D054E000F06FFCE6
:105A9000002851D0616A36F81120B0FBF2F6626836
:105AA00002EB42018E4246D31303B34205D242E0D9
:105AB00000F013FCECE71846ECE75008002110EB6F
:105AC000062051EB16610023FEF77AFDA0F5407623
:105AD000DFF81C74BE422ED22168C8602CE000F0B2
:105AE000FCFB91E7184691E7BCF1010F09D0BCF12E
:105AF000020F09D0BCF1040F18D0BCF1080F18D068
:105B000019E000F03CFCB8B1626A36F81230616806
:105B1000B0FBF3F000EB5100B0FBF1F0A0F110018D
:105B2000B94208D2226880B2D06005E000F0D5FB0F
:105B3000E9E71846E8E7012504F1680001210023A0
:105B400041800180C36003612846F2BDFEFFFFEF84
:105B5000010002000400060008000A000C0010000A
:105B6000200040008000000190F82810CA0706D5E8
:105B700002685368C16A23F400330B43536090F802
:105B800028108A0706D502685368016B23F4803316
:105B90000B43536090F828104A0706D502685368F3
:105BA000416B23F480230B43536090F828100A07BD
:105BB00006D502685368816B23F400430B4353609E
:105BC00090F82810CA0606D502689368C16B23F4C2
:105BD00080530B43936090F828108A0606D502681C
:105BE0009368016C23F400530B43936090F82810E2
:105BF0004A0610D502685368416C23F480130B43A6
:105C00005360436CB3F5801F05D15368816C23F456
:105C1000C0030B43536090F828100A0606D50168AC
:105C20004A68C06C22F4002202434A607047F8B50B
:105C3000054605F184040020E0606FF07E47FEF722
:105C400017FE0646286801680A0711D500973346F3
:105C500000224FF40011FFF7A7FC48B1FFF765FEE3
:105C600021F08001FFF74CFEF8D12020606017E0A2
:105C7000286801684A0717D50097334600224FF479
:105C80008001FFF791FC78B1FFF74FFE21F490718E
:105C9000FFF736FEF8D100F011F8FCD12020A0600B
:105CA000002121700320F2BD202060602021A1602E
:105CB0000020E866002129672070F2BD286800F105
:105CC000080151E8001F490800F10803490043E8B2
:105CD0000010002870472DE9F041069C05460E464D
:105CE00090461F462868C1693140B1420CBF01206F
:105CF0000020404531D114F1010FF3D0FEF7B8FD7B
:105D0000C01B844200D314B90320BDE8F081286889
:105D100001684A07E6D5C169080704D42968C8693B
:105D20000105DFD50CE02A6808201062FFF7ECFDC2
:105D300005F184000821C160002202700120E4E71F
:105D400029684FF400600862FFF7DEFD05F184006A
:105D50002021C16000220270D6E70020D5E710B5EF
:105D600000F008F8FCD100F00FF8FCD12021C0F8B9
:105D7000881010BD016851E8002F0B4622F0C002C8
:105D800043E8002100297047016801F1080252E848
:105D9000002F01F1080422F4000244E80021002948
:105DA000704710B500F011F8FCD100F018F8FCD1E4
:105DB000C16E012902D100F025F8FCD12021C0F8E4
:105DC0008C100022C266426710BD016851E8002FA6
:105DD0000B4622F4907243E80021002970470168C5
:105DE00001F1080201F1080452E8002FDFF8041164
:105DF0000A4044E80021002970470000010000101B
:105E000020010004026852E8002F036822F010020B
:105E100043E800210029704710B50146886A0968E7
:105E20000A68930614D40021A0F85610026802F103
:105E3000080151E8002F036803F1080422F08002F2
:105E400044E800210029F1D100F03BF8FCD110BD5D
:105E5000BDE81040FEF7BDBF806A00F0B2BA000096
:105E6000F8B5846A04F1880504F1560728686E685D
:105E700021688A68110606D5212804D100203880BF
:105E80002046FFF76CFF21688868410606D5222E60
:105E900004D1002038812046FFF783FFA86840F036
:105EA0001000A8602046BDE8F24000F085BA00006E
:105EB000806A00F1560100220A8100230B8000F065
:105EC0007BBA016851E8002F0B4642F0400243E8DC
:105ED0000021002970470000F369FFCF00800040D7
:105EE000FFF4FF1100380140880000580024F4003E
:105EF00000FD0F00FEFFFFEF38B5040001D10120C7
:105F000032BD2168DFF88423914204F1240500F0BA
:105F100046F80221697020680268A068E168236879
:105F20006FF30E12024320690A4361690243A069BC
:105F30000A43E1690243206A0A4302431A60204689
:105F400000F077F9A068B0F5804F04BF00216160D0
:105F50002079696A00F03F0000F014F838B1052894
:105F600005D2204600F082F900F012F803E000208C
:105F700028636863A8630021A96101206870297003
:105F8000002032BD0860A96AE86A4860606870470E
:105F9000296B00200860696BA86B486070470BD2C2
:105FA000DFF8EC0241181423B1FBF3F18900DFF8AC
:105FB000E4222962EA617047DFF8DC02411814220A
:105FC000B1FBF2F18900DFF8D4022962E861704781
:105FD000F8B5044604F1240600253078012801D1E3
:105FE0000220F2BD012030707778012F30D10220DD
:105FF00070700027B7612068D0F800C04FEA5C07D6
:106000004FEA470CC0F800C0204600F0F6F82168BF
:10601000F06820B10A6842F00E020A6008E00868E1
:1060200020F0040008602068016841F00A01016066
:10603000706A0168CA0301D500F078F8306B08B1C6
:1060400000F074F82068016841F00101016001E08E
:10605000357002252846F2BD40B100F124014A788E
:10606000022A05D00420886100220A7001207047AE
:106070000268136823F00E0313604A6A136823F45E
:1060800080731360006802685208520002600120A9
:1060900091F82020CB6902F01C02904058608A6A77
:1060A000C86A5060086B30B1026822F480720260E6
:1060B000486B8A6B426001224A700020087070476A
:1060C00038B500F1240200245178022903D00420BD
:1060D0009061012428E001680B6823F00E030B6037
:1060E00001680D686D086D000D60516A0B6823F43E
:1060F00080730B60012192F82030D56903F01C03F6
:1061000099406960936AD16A5960116B31B10B682B
:1061100023F480730B60516B936B4B6001235370BE
:106120001470516901B18847204632BD016841F4BD
:10613000807101607047F8B500F124010423CA6939
:1061400014680268156891F8206006F01C0603FACE
:1061500006F73C4210D06F070ED51468A50603D48D
:10616000146824F00404146000F03EF8C9680029A3
:1061700039D0BDE8F4400847022303FA06F73C4251
:1061800013D0AF0711D51468A50605D4146824F000
:106190000A04146001224A7000F026F800220A70F6
:1061A000896801B3BDE8F4400847082303FA06F6FE
:1061B000344218D02B0716D5146824F00E0414604E
:1061C000012291F82030CC6903F01C039A406260F0
:1061D000012301228A614B7000220A70096911B102
:1061E000BDE8F4400847F1BD91F82020CC6902F0E9
:1061F0001C02934063607047000070B5C56C046D6D
:106200006C60446D14B1856DC46D6C60012490F8B0
:106210004450066C05F01C05AC4074600468636073
:106220008068102802D1A260E16070BDA160E260C8
:1062300070BD10B5416C0268144B89089A4239BF91
:10624000174C04EB8101174B03EB8101816402F0D1
:10625000FF02083A1421B2FBF1F1012301F01F0102
:10626000114AC26403FA01F1016510BD01790F4AB8
:106270000F4B836501F03F0102EB81024265491E2D
:10628000012201F003018A40C26570470804024000
:10629000F8FFFDBF00000240F8FBFDBF0004024014
:1062A000000802401C08024080080240FC0802402E
:1062B0004009024080B5AFF30080024A1100182067
:1062C000ABBEFBE7260002004FF0B040006800F0D4
:1062D000F000B02888BFB020704738B54FF0B04408
:1062E000304DA16811F00C0106D1FFF7EDFFC0F3AE
:1062F000031055F8200032BD04292B4A05D0082987
:106300002A4804D12168C90222D5104632BDE1686D
:1063100001F00301022904D0032904D12168C90234
:1063200007D5104605E0FFF7CFFFC0F3031055F87F
:106330002000E168E268E368C1F306214843C2F344
:106340000211491C5B0FB0FBF1F05B1CB0FBF3F0DA
:1063500032BD80B5FFF7C1FF1149FFE7144A096854
:10636000C1F3031152F82110B0FBF1F002BD80B56A
:10637000FFF7EFFF00F010F8C1F3022106E080B54F
:10638000FFF7E7FF00F008F8C1F3C22112F821106F
:1063900001F01F01C84002BD0149064A0968704763
:1063A000080000581C0800080024F4000048E80118
:1063B000DC0700085C0800087047704770477047AA
:1063C0007047704701488047014800474B64000808
:1063D000296500080248416802788A1842607047BF
:1063E000642000204648474A01681268B1F1006FF6
:1063F0000AD3120302F47F22434882188A4203D34D
:1064000008684249884201D0002070470120704747
:1064100080B53F493F480860026882F308884068B9
:10642000804730BF01BD10B5FFF7DCFF4FF00054CF
:1064300020B100202070BDE81040E9E701210720CD
:10644000FF2221706070A27010BD38B5324C2068F8
:10645000C00002D4206880011AD54FF0005528787A
:1064600028B9FFF7BFFF10B1FFF7D2FF12E028787D
:1064700048B9FFF7B7FF30B901200721FF22287084
:106480006970AA7006E02878012818BF022801D098
:10649000FFF7C9FF2148016841F470010160002045
:1064A000FBF716FA40B180791D49A160A26822F479
:1064B0007C5242EA0022A2604FF0B0400122016803
:1064C00041F48031016017490B6862F302030B60ED
:1064D0000A6802F00702012AFAD101688903FCD593
:1064E0000221826861F301028260816801F00C017F
:1064F0000829FAD1016849084900016031BD00004E
:106500004071000880400058FCFFFF07298A44942E
:1065100008ED00E0007000089400005888ED00E0ED
:10652000FECAFECA004000580548014603B468464A
:1065300080F30988AFF3008000F004F800F014F84D
:10654000A5EDF5FE4EF68851CEF20001086840F444
:1065500070000860BFF34F8FBFF36F8F4FF0017073
:10656000E1EE100A704700000120C046002801D06B
:1065700000F00AF8AFF300800020AFF30080FDF7D1
:1065800085FA00F015F8000010B507497944183174
:10659000064C7C44163404E00A68081D1144884700
:1065A0000146A142F8D110BD68020000B40200000B
:1065B00000F000B807463846FFF77CFEFBE7000016
:1065C00080B50D49794430310C4A7A442E329142DB
:1065D00003D00B49AFF3008002BD8DF8000001220B
:1065E00069460120FEF728FA012802D19DF8000033
:1065F00002BD4FF0FF3002BD089AFFF7049AFFF783
:106600008C200020FFF7FEBFFFF7FEBFFFF7FEBFA5
:10661000FFF7FEBFFFF7FEBFFFF7FEBFFFF7FEBFAE
:10662000FFF7FEBFFFF7FEBFFFF7FEBFFFF7FEBF9E
:10663000FFF7FEBFFFF7FEBFFFF7FEBFFFF7FEBF8E
:10664000FFF7FEBFFFF7FEBFFFF7FEBFFFF7FEBF7E
:10665000FFF7FEBFFFF7FEBFFFF7FEBFFFF7FEBF6E
:10666000FFF7FEBFFFF7FEBFFFF7FEBFFFF7FEBF5E
:10667000FFF7FEBFFFF7FEBFFFF7FEBFFFF7FEBF4E
:10668000FFF7FEBFFFF7FEBFFFF7FEBFFFF7FEBF3E
:10669000FFF7FEBFFFF7FEBFFFF7FEBFFFF7FEBF2E
:1066A000FFF7FEBFFFF7FEBFFFF7FEBFFFF7FEBF1E
:1066B000FFF7FEBFFFF7FEBFFFF7FEBFFFF7FEBF0E
:1066C000FFF7FEBFFFF7FEBFFFF7FEBFFFF7FEBFFE
:1066D000FFF7FEBFFFF7FEBFFFF7FEBFFFF7FEBFEE
:1066E000FFF7FEBFFFF7FEBFFFF7FEBFFFF7FEBFDE
:1066F000FFF7FEBFFFF7FEBF7047FEE7704770472A
:106700007047FFF767BE0020FEF7E1BA0020FEF7F2
:10671000E4BAFCF761BEFCF7E5BCFCF7B9BC38B5E0
:1067200004460D462846FFF74BFFA84218BF002439
:10673000204632BD30B4002512E050F8042BD307B8
:1067400044BF4A44521E091F042942F8045BFAD28E
:1067500013468C0744BF15809B1CC90748BF1D709A
:1067600050F8041B0029E8D130BC70472DE9FC4DDE
:10677000016800F10805490805EBC102019200F12A
:106780000803406800F0010A03EBC108400808EB69
:10679000C00B0020002105E0009A964218BF16F9B0
:1067A000014B0CD1019A954206D02B686A68EE180D
:1067B000324400920835EFE75846BDE8F68D009A5E
:1067C000964205D12B686A68EE183244009208356B
:1067D00016F8017B884210D1D84508BFFEF7EAFBC6
:1067E000D8F80000BAF1000F18BF4844D8F80410D8
:1067F0000144884208F10808EED0002C00F8017B23
:1068000002D5641CE6D1C7E7641ED8D5C4E70000F2
:1068100025FFFFFF9C0300003C21002070080000C2
:106820003C0003200000000045FFFFFF02000000C5
:10683000020000002C000000FC00000008100020F6
:106840003411000029FFFFFF0200000002000000D9
:106850000C010000020000002800032014000000CA
:10686000030DFF0186F40000018100810081008199
:106870000081008100810081008100810081008110
:106880000081008100810081008100810081008100
:1068900000810081008100810081008100810081F0
:1068A000008100810081008100A900F8FFF4000050
:1068B00001F9000010FC002E04004800040048000C
:1068C00004004800080048000C0048000C00480084
:1068D000093D0002040101402300209023002040D4
:1068E00023002040230020FC000340230020FC0064
:1068F00007D0200020BC200020E0001B6A3C0008DC
:106900006A3C00086A3C00086A3C00086A3C0008CF
:106910006A3C00086A3C0008F8FF0BF23B00086A7A
:106920003C00086A3C0008FAFF31000030B50A4B11
:106930005A6842F480225A60EFF3108472B68022C3
:1069400051F8045B40F8045B521EF9D11868C1038A
:0E695000FCD484F3108830BD10400058EC00D9
:040000050800652961
:00000001FF
